:020000040000FA
:10000000A8E1FF1F7D0100008501000087010000BD
:1000100000000000000000000000000000000000E0
:100020000000000000000000000000008901000046
:1000300000000000000000008B0100008D010000A6
:100040008F0100008F0100008F0100008F01000070
:100050008F0100008F0100008F0100008F01000060
:100060008F0100008F0100008F0100008F01000050
:10007000ED0B00008F0100008F0100008F010000D8
:100080008F0100008F0100008F0100008F01000030
:100090008F0100008F0100008F0100008F01000020
:1000A0008F0100008F0100008F0100008F01000010
:1000B0008F0100008F0100008F0100008F01000000
:1000C00000F002F800F04BF80CA030C808382418F3
:1000D0002D18A246671EAB4654465D46AC4201D180
:1000E00000F03DF87E460F3E0FCCB6460126334267
:1000F00000D0FB1AA246AB46334318472C0F000032
:100100004C0F0000103A02D378C878C1FAD85207D1
:1001100001D330C830C101D504680C6070470000BD
:100120000023002400250026103A01D378C1FBD813
:10013000520700D330C100D50B60704710B5642959
:1001400002D100F0A3F810BD732902D100F042F9EA
:1001500010BD002010BD1FB51FBD10B510BD00F0B3
:1001600045FA1146FFF7F7FF00F00EFE00F03AF9EE
:1001700003B4FFF7F2FF03BC00F058FA07488047CA
:1001800007480047FEE7FEE7FEE7FEE7FEE7FEE77B
:1001900004480549034A054B70470000D90A00008E
:1001A000C1000000A8E0FF1FA8E1FF1FA8E0FF1F9B
:1001B0000FB4054910B503AA029800F0D7F910BC96
:1001C00008BC04B0184700001CE0FF1FF8B50E463D
:1001D0000446002020622046E1688847002829D094
:1001E000252802D06268A16820E0E1682046002747
:1001F000884705001ED028464138192802D8012713
:10020000FF0220353246204627602946FFF796FF39
:10021000002808D0012804D0F61DF608F60008369C
:10022000D9E7361DD7E762682846A1689047206A5B
:10023000401CCFE7206AF8BD70B50C460546012A80
:1002400005D02878800600D5EA69002302E0012362
:1002500005E05B1C934202D2E05C0028F9D1A8695A
:10026000E618C01AA861286AC01828622846C04645
:10027000C04604E06A682078A968641C9047B442CC
:10028000F8D32846C046C04670BD0000F7B500252B
:1002900075291068009914A611D0C046C0460028E0
:1002A00002DA404211A608E0009909688A0701D5E0
:1002B0000FA602E0490704D50EA6012501E0C046BD
:1002C000C046009F0024243704E000F063F9303179
:1002D0003955641C0028F8D12B4632462146009837
:1002E00000F00DF8FEBD0000000000002D00000031
:1002F0002B00000020000000704770477047FFB5DA
:1003000004460D4681B0243000902168880604D54B
:100310001022E0699143216000E00120A84201DD44
:10032000471B00E000270498A1697A191018081AE1
:10033000A0612078C00602D42046C046C0460026F0
:1003400008E003986268A168805D9047206A401CBD
:10035000761C206204988642F3DB2078C0060AD51A
:100360002046C046C04606E06268A168302090473B
:10037000206A401C206238467F1E0028F4DC07E01B
:1003800000986268A168405D9047206A401C206226
:1003900028466D1E0028F3DC2046C046C046207863
:1003A000000602D5022005B0F0BD0120FBE710B524
:1003B0004369002B02D0C046C04601E0FFF73CFF76
:1003C000012010BD1278014624310A7000224A70C3
:1003D0000122ECE711680022D243E8E7C0688021DF
:1003E000084070470446C046C0462046FFF7C0FE9E
:1003F0000048704744E0FF1F704701460879704786
:10040000FFFFFFFFFFFFFFFFFFFFFFFFFEFFFFFFFD
:10041000002203098B422CD3030A8B4211D3002301
:100420009C464EE003460B433CD4002243088B42DB
:1004300031D303098B421CD3030A8B4201D3944668
:100440003FE0C3098B4201D3CB01C01A524183095B
:100450008B4201D38B01C01A524143098B4201D315
:100460004B01C01A524103098B4201D30B01C01A40
:100470005241C3088B4201D3CB00C01A52418308BA
:100480008B4201D38B00C01A524143088B4201D3E7
:100490004B00C01A5241411A00D201465241104647
:1004A00070475DE0CA0F00D04942031000D34042BC
:1004B000534000229C4603098B422DD3030A8B42F2
:1004C00012D3FC22890112BA030A8B420CD3890190
:1004D00092118B4208D3890192118B4204D3890176
:1004E0003AD0921100E08909C3098B4201D3CB01B4
:1004F000C01A524183098B4201D38B01C01A524169
:1005000043098B4201D34B01C01A524103098B426C
:1005100001D30B01C01A5241C3088B4201D3CB0057
:10052000C01A524183088B4201D38B00C01A52413A
:10053000D9D243088B4201D34B00C01A5241411A11
:1005400000D20146634652415B10104601D340423F
:10055000002B00D54942704763465B1000D34042F0
:1005600001B50020C046C04602BD0000084B70B572
:100570000D467B4400F027F804462846FFF72EFF7F
:10058000002802D00020C04370BD204670BD00008E
:100590000308000001468008081A02091018020A20
:1005A0001018020C1018C008820012185200891A84
:1005B00001E0401C0A390A29FBD2704701694A1C34
:1005C00002610878704700B58FB002910021059153
:1005D0000549019379440391114604906846FFF759
:1005E000F5FD0FB000BD0000E5FFFFFF7546FFF70A
:1005F000FFFEAE46050069465346C008C00085466A
:1006000018B020B5FFF7C4FD60BC00274908B64606
:100610000026C0C5C0C5C0C5C0C5C0C5C0C5C0C511
:10062000C0C5403D49008D46704700000149182073
:10063000ABBEFEE72600020010B50C4800F08AFBB6
:100640000B4800F037F94621094800F045F9084801
:1006500000F0F2F807480178054800F03DF9044839
:1006600000F0EAF8024800F02EF910BDA086010063
:100670000070064026E0FF1FFFB583B006460F4618
:1006800000200190029000BF264800690428FBD09A
:10069000002421E000251BE000BF2348006900285A
:1006A000FBD0322000F056FB1F48006904280DD112
:1006B00001A8005D07214A1B01219140084301A9BF
:1006C000085500BF184800690428FBD0681CC5B253
:1006D000082DE1DB601CC4B2052CDBDB6846017928
:1006E000407909186846807909186846C079081861
:1006F000C0B200906846017A0098814202D0002082
:1007000007B0F0BD684601790598017068464179E7
:10071000069801706846807930706846C0793870F4
:100720000120EDE7C0F00FF8C0F00F400648806BE5
:100730000121090308430449886304488068891536
:1007400008430249886070470080044000C00440AC
:1007500010B51E484069042108431C4948610846F9
:10076000406804210843194948603C2000F0F2FA2F
:10077000164880680421084314498860144800F032
:10078000E9FA1248406804210843104948602820CB
:1007900000F0E0FA00200D494861282000F0DAFA64
:1007A0000A480069042801D1012010BD00BF074894
:1007B00000690028FBD0502000F0CCFA0348006903
:1007C000042801D10120F0E70020EEE7C0F00F403F
:1007D000504600001548806B012149030843134926
:1007E0008863134880688915084311498860084662
:1007F000C068891508430E49C8600E484069042145
:1008000008430C49486108464069082108430949E2
:100810004861084640680421084306494860084684
:10082000406808210843034948607047008004403D
:1008300000D0044000F10F400146C878C007C00F47
:10084000002801D1012070470020FCE781780822B0
:1008500091438170704700000A49496B802211431F
:10086000084A51631146896BD2141143054A9163BA
:100870005115054A9162D162142141708021817025
:10088000704700000080044000B0044081782022BE
:1008900011438170704781781022914381707047B5
:1008A0008178202291438170704781781022114312
:1008B0008170704700B503461846FFF7E7FF1846FA
:1008C000FFF7F3FF00BD00B503461846FFF7E8FF4A
:1008D0001846FFF7E0FF00BD0171704710B50649EB
:1008E00006480068FFF794FD0549486100208861CB
:1008F0000520086110BD000040420F0034E0FF1FDA
:1009000000E000E010B5002819DA1A4A03071B0FAF
:10091000083B9B089B00D2588307DC0EFF23A340B3
:100920009A438B071B0E8407E40EA3401A43114B16
:100930000407240F083CA408A4001A5118E00E4A2A
:1009400003231B02D21883089B00D2588307DC0EB6
:10095000FF23A3409A438B071B0E8407E40EA3409A
:100960001A43054B032424021B198408A4001A51BE
:1009700010BD00001CED00E000E100E070B54F4844
:100980000078C0210840002868D14C4840794021B7
:10099000084000284ED1494800780421084000282A
:1009A00015D1474C4548007838210840C10801203E
:1009B0008840C5B229462046FFF72AFD04463F4835
:1009C000407830210840002803D0640901E0012468
:1009D000E4033A48C078E0210840C106C90E002966
:1009E00026D14011030000F063F90805090D111527
:1009F000191D20230520C00144431AE005200002F0
:100A0000444316E00F20C001444312E00520400299
:100A100044430EE0B720800044430AE0B720C00002
:100A2000444306E02748444303E02748444300E0AA
:100A300000BF38E021480079C006C00E451C294699
:100A40001F48FFF7E5FC04461C484079C006C00E6D
:100A50000546183520466843044624E017480078C8
:100A6000C0210840402815D114484078C007C00F65
:100A7000002802D10124E40315E01048007A0E2278
:100A8000104042080120904001461048FFF7C0FC8A
:100A9000044608E009480078C0210840802801D1B8
:100AA000074C00E070BD0A484068000F411C20461A
:100AB000FFF7AEFC0749086000BFF3E700400640BF
:100AC00000127A0095080000710B000000093D003B
:100AD0004080044034E0FF1F00202C4908602C486F
:100AE000806B491508432A4988632A4828494031C0
:100AF0004860294880682949084027498860084695
:100B0000C068264908402449C860254840786421C7
:100B10000840242108432249487080202149087058
:100B20009A201F4908700846C078C006C00EC870D9
:100B3000012008710020487100BF194880791021F8
:100B400008400028F9D100BF154880790C210840E1
:100B50000828F9D140201249487100BF1048807917
:100B60000C2108400828F9D100BF0D4880794021A8
:100B700008400028F9D01A200949087000BF084829
:100B800080790C2108400C28F9D17047008104407D
:100B9000008004400000011040900440FFF8FFFE78
:100BA000004006400050064010B50848C07820219B
:100BB00008430649C87002210C20FFF7A3FE0C2051
:100BC00001218140024A116000BF10BD00A0064013
:100BD00000E100E000BF044800792021084000281F
:100BE000F9D00148C079704700A0064010B5FFF762
:100BF000F1FF0849084A1278885407480078401CD9
:100C000005490870084600780A2801D101200870BB
:100C100010BD000038E0FF1F00E0FF1F1849496BBE
:100C2000012292021143164A51631146496801227A
:100C300012041143124A5160114649680122D2063A
:100C400091430F4A516011464968012292061143AF
:100C50000B4A516000210B4A11701A21517000217A
:100C60009170D17091710F2191720021D172114652
:100C7000C9780C221143034AD1701146C8797047D4
:100C80000080044000A00640012040020149486065
:100C900088607047009004400449C87100BF034950
:100CA0000979402211400029F9D0704700A0064080
:100CB00030B47446641E2578641CAB4204D3635D73
:100CC0005B00E31830BC18471D46F8E739E01F49C0
:100CD000897831290AD11D4909794E2906D11C4943
:100CE0008968042211431A4A91600DE017498978F6
:100CF000312909D115490979462905D1144949688D
:100D000004221143124A51601049897932290AD1CB
:100D10000E49097A4E2906D10D49896808221143E6
:100D20000B4A91600DE009498979322909D10749B7
:100D3000097A462905D10649496808221143044A1F
:100D400051600146401E0029C1D1704738E0FF1FA5
:100D500000F10F4001460AE0491E00BF054A126932
:100D600001231B041A40002AF8D0024A1269002904
:100D7000F2D1704700E000E010B503460C46D8B24F
:100D8000FFF78AFF184610BD1CB5FFF7F7FDFFF708
:100D9000A5FDFFF779FFFFF741FFFFF705FFFFF71D
:100DA000C5FC2E48FFF758FDFFF746FCFFF712FD84
:100DB0002BA0FFF7FDF92C484068042108432A497D
:100DC000486008464068082108432749486043E0D6
:100DD0002548006804210840042803D123A02549A0
:100DE000086002E024A0234908601F480068082129
:100DF0000840082803D121A02249086002E022A06F
:100E00002049086000F066F821490880FFF7A0FC3F
:100E100000281BD01F4B204A20492148FFF72CFCFB
:100E200000280FD017480068124909680091019006
:100E300017480388184802781948017819A0FFF765
:100E4000B7F906E01CA0FFF7B3F902E01EA0FFF718
:100E5000AFF91F48FFF73AFFBAE7000000700640FD
:100E6000737461727400000000F10F40314F464608
:100E70000000000014E0FF1F314F4E00324F464685
:100E80000000000018E0FF1F324F4E20000000005D
:100E900012E0FF1F05E0FF1F04E0FF1F03E0FF1F3C
:100EA00002E0FF1F30312C25642C25642C25642C96
:100EB00025732C25730A00006B686F6E6720646FC2
:100EC0002064756E670A00004552520A0000000057
:100ED000404B4C0010B50020494908804948FFF7B5
:100EE000E9FC46214748FFF7F7FC4648FFF7A4FC1A
:100EF000454801784348FFF7EFFC4248FFF79CFC68
:100F00004048FFF7E0FC4148FFF724FF3D48FFF76A
:100F1000D1FC46213B48FFF7DFFC3A48FFF78CFC49
:100F20003B4801783748FFF7D7FC3648FFF784FC89
:100F30003448FFF7C8FC3548FFF70CFF3148FFF78E
:100F4000B9FC47212F48FFF7C7FC2E48FFF774FC78
:100F50002C48FFF752FA2F4908702A48FFF776FC11
:100F60002848FFF74AFA2C4908702648FFF76EFC1C
:100F70002448FFF7A8FC2548FFF7ECFE2548007839
:100F800000021F49098808431D4908800846008857
:100F90002149097808431A4908801A48FFF78AFC52
:100FA00046211848FFF798FC1648FFF745FC1B48F8
:100FB00001781448FFF790FC1248FFF73DFC1148F8
:100FC000FFF781FC1148FFF7C5FE0E48FFF772FCE2
:100FD00046210C48FFF780FC0A48FFF72DFC10481B
:100FE00001780848FFF778FC0648FFF725FC05481C
:100FF000FFF769FC0548FFF7ADFE0148008810BD0A
:1010000032E0FF1F0070064027E0FF1F983A000003
:101010002AE0FF1F2FE0FF1F30E0FF1F28E0FF1F27
:1010200026E0FF1F000000004810000000E0FF1F46
:1010300038000000040100008010000038E0FF1FAD
:10104000700100002001000000000000000000000E
:10105000000000000000000000000000241000005C
:10106000241000000000000000000000235C0001CC
:10107000071310112021230000000000006CDC0287
:04000005000000C136
:00000001FF
